:100000000C9434000C943E000C943E000C943E0082
:100010000C943E000C943E000C943E000C943E0068
:100020000C943E000C943E000C943E000C943E0058
:100030000C943E000C943E000C943E000C943E0048
:100040000C943E000C943E000C943E000C943E0038
:100050000C943E000C943E000C943E000C943E0028
:100060000C943E000C943E0011241FBECFEFD8E04C
:10007000DEBFCDBF0E945A000C94B6000C94000065
:100080001092C50087E68093C40088E18093C10088
:1000900086E08093C20008959091C00095FFFCCF48
:1000A0008093C60008958091C0008823E4F7809172
:1000B000C6000895CF93DF9300D000D0CDB7DEB750
:1000C0000E94400084B18F6184B98AB1806E8AB980
:1000D00081E40E944C0019821A821B821C820BC090
:1000E00089819A81AB81BC810196A11DB11D898353
:1000F0009A83AB83BC8389819A81AB81BC81803236
:10010000914AA740B10564F30E94530095B1907ED7
:1001100095B99BB19F719BB980FF03C095B1906168
:1001200095B981FF03C095B1986095B982FF03C06E
:1001300095B1946095B983FF03C095B1926095B96C
:1001400084FF03C095B1916095B985FF03C09BB151
:1001500090689BB986FF03C09BB190649BB98823CC
:100160000CF0B6CF8BB180628BB9B2CFF894FFCFD1
:00000001FF
