S00D00006C616220362E7372656392
S11300000C9434000C9449000C9449000C9449005D
S11300100C9449000C9449000C9449000C94490038
S11300200C9449000C9449000C9449000C94490028
S11300300C9449000C9449000C9449000C94490018
S11300400C9449000C9449000C9449000C94490008
S11300500C9449000C9449000C9449000C944900F8
S11300600C9449000C94490011241FBECFEFD8E032
S1130070DEBFCDBF11E0A0E0B1E0E0E2F3E002C0FA
S113008005900D92A039B107D9F70E94E9000C94AC
S11300908E010C9400001092C50087E68093C40082
S11300A088E18093C10086E08093C2000895909116
S11300B0C00095FFFCCF8093C60008958091C000D6
S11300C08823E4F78091C6000895CF93DF93EC0171
S11300D003C00E945700219688818111FACFDF91D5
S11300E0CF910895ECE7F0E01082808180648083F2
S11300F080818083EAE7F0E01082808180688083D9
S11301008081876080830895EAE7F0E080818064DD
S1130110808380917A0086FDFCCF80917800909155
S1130120790008951F93CF93DF9300D000D01F92DE
S1130130CDB7DEB7AC01892B91F580E30E9457005F
S11301403FC09A01ADECBCEC0E947F019695879567
S113015096958795969587959C01220F331F880F56
S1130160991F880F991F880F991F820F931F9A0157
S1130170281B390BC901E1E0F0E0EC0FFD1FE10F92
S1130180F11D805D80839A010E947F01AC01569528
S1130190479556954795569547951F5F01C010E0C2
S11301A04115510571F60AC01150E1E0F0E0EC0F81
S11301B0FD1FE10FF11D80810E9457001111F4CF42
S11301C00F900F900F900F900F90DF91CF911F9190
S11301D00895CF93DF9300D000D0CDB7DEB70E944F
S11301E04B000E94720084B18F6184B98AB1806E21
S11301F08AB980E091E00E9465008AE091E00E9463
S1130200650082E291E00E94650084E391E00E942F
S113021065000E945E00182F0E94570087E091E05D
S11302200E946500113379F40E9484008C018CE4EF
S113023091E00E946500C8010E94920087E091E06D
S11302400E94650042C01233E1F586E691E00E9407
S113025065000E945E00182F0E94570087E091E01D
S11302600E94650085B1807E85B98BB18F718BB991
S113027010FF03C085B1806185B911FF03C085B14A
S1130280886085B912FF03C085B1846085B913FF06
S113029003C085B1826085B914FF03C085B1816054
S11302A085B915FF03C08BB180688BB916FF03C0F5
S11302B08BB180648BB9112344F48BB180628BB908
S11302C004C08CE791E00E94650019821A821B82A7
S11302D01C820BC089819A81AB81BC810196A11DCE
S11302E0B11D89839A83AB83BC8389819A81AB8155
S11302F0BC81803E9349A440B10564F37ACFA29FA8
S1130300B001B39FC001A39F700D811D1124911DE5
S1130310B29F700D811D1124911D0895F894FFCF93
S11303200D0A4D656E753A0D0A00312E204C656537
S11303307220506F74656E63696F6D6574726F0DB2
S11303400A00322E20456E7669617220417363691A
S1130350690D0A0053656C656363696F6E6520758A
S11303606E61206F7063696F6E3A200056616C6F26
S1130370722064656C20706F74656E63696F6D655F
S113038074726F3A2000496E677265736520756EEA
S11303902063617261637465723A20004F7063690F
S11303A06F6E206E6F2076616C6964610D0A0000C7
S9030000FC
