:020000020000FC
:040000000C942E002E
:04000C000C942B0421
:040034000C945C04C8
:100040000C944E040FEF0DBF08E00EBF3F065B4F50
:10005000666D7D077F6F777C395E7971F8940AE26F
:1000600004B905E105B90FE307B9002708B90CEF9A
:100070000AB900270BB900E00093C1000E941004E8
:100080000E941D0499270EE00093000100E00093F8
:100090000201009303010093040100930501009302
:1000A00007010093090100930101009311010093DE
:1000B0001201009313010093140100930D010093AA
:1000C0000C0100930E0100930F010093100101E059
:1000D000009306010093080103B1097100930B011D
:1000E0000027112701E000936F0001E000936E00EC
:1000F00001E00093680009E100936B000027789409
:1001000000910C01003009F464C0013009F424C1ED
:10011000023009F422C1033009F458C1043009F453
:100120009AC1053009F4DDC1063009F46EC207300A
:1001300009F4A4C2E8C200910101F0E0ECE4E00F90
:100140001491012F0F7308B9002716FD0068992339
:1001500009F00460209100012E3039F02D3039F083
:100160002B3039F0273039F007C0086005C0006136
:1001700003C0006201C000640BB909E110910C01D9
:10018000113031F0143021F0153011F0026001C04F
:10019000046010911501113009F4006209E1109119
:1001A0000C01103041F0113041F0123041F01330A9
:1001B00041F0026007C0026005C0046003C0066031
:1001C00001C000C010911501113009F4006205B999
:1001D00097CFF89400910D01013029F40027009386
:1001E0000D01789402C078949CC010910201209176
:1001F0000301309104014091050150910601609185
:100200000701709108018091090113951A3009F0D6
:100210005DC011272395263009F058C02227339559
:10022000343029F03A3009F051C033274395343047
:1002300009F04CC0423009F049C0332744278130CF
:1002400009F003C0713031F117C0723039F07430E9
:1002500009F17630F9F07930E9F00EC05395593054
:1002600021F05A3099F555276395593079F5623068
:1002700069F551E066271CC05395523021F05A3081
:1002800029F555276395523009F56330F9F451E0AB
:1002900066270EC05395513021F05A30B9F45527D6
:1002A0006395513099F4633089F451E0662700C0BA
:1002B0007395733021F07A3049F477278395733042
:1002C00029F4813019F471E0882700C010930201ED
:1002D00020930301309304014093050150930601DC
:1002E0006093070170930801809309010091020156
:1002F00010911101209103013091120140910401EC
:10030000509113016091050170911401011749F496
:10031000231739F4451729F4671719F401E00093FE
:100320001501F89400910F01013029F40027009382
:100330000F0178940DC07894F89400911001013069
:1003400029F4002700931001789402C0789403C028
:1003500000E000931501EECE3CCFF89400910F0120
:10036000013029F4002700930F0178940DC0789490
:10037000F89400911001013029F400270093100136
:10038000789413C0789421C0109102012091030148
:1003900013951A3029F411272395263009F42227C2
:1003A000109302012093030110C0109102012091CB
:1003B00003011A951F3F29F419E02A952F3F09F4EC
:1003C00025E01093020120930301B4CEF89400912C
:1003D0000F01013029F4002700930F0178940DC01C
:1003E0007894F89400911001013029F400270093CB
:1003F000100178941BC078942DC0109104012091B5
:1004000005011395143029F01A3009F00AC011279C
:100410002395143009F005C0223009F002C01127DD
:100420002227109304012093050114C010910401A8
:10043000209105011A951F3F09F007C019E02A9580
:100440002F3F09F002C013E022E010930401209333
:10045000050100C06FCEF89400910F01013029F41E
:10046000002700930F0178940DC07894F8940091C0
:100470001001013029F400270093100178941BC06B
:1004800078942EC010910801209109011395133022
:1004900029F01A3009F00AC011272395133009F00A
:1004A00005C0213009F002C011E022271093080195
:1004B0002093090115C01091080120910901113004
:1004C00029F4203019F412E021E005C01A951F3FED
:1004D00011F419E02A95109308012093090100C036
:1004E00029CEF89400910F01013029F400270093E0
:1004F0000F0178940DC07894F894009110010130A8
:1005000029F400270093100178944CC078947CC0A3
:100510000091060110910701209108013091090115
:10052000313009F003C0213031F117C0223039F0E9
:10053000243009F12630F9F02930E9F00EC0039596
:10054000093021F00A3029F500271395093009F503
:100550001230F9F401E011271CC00395023021F09C
:100560000A30B9F400271395023099F4133089F456
:1005700001E011270EC00395013021F00A3049F443
:1005800000271395013029F4133019F401E01127E5
:1005900000C00093060110930701209308013093D7
:1005A000090132C000910601109107012091080154
:1005B000309109010130D1F41030C1F4313009F02B
:1005C00003C0213069F00FC0223039F0243041F0EF
:1005D000263031F0293021F006C008E012E00BC0CF
:1005E00000E013E008C001E013E005C00A950F3FEA
:1005F00011F409E01A950093060110930701209366
:1006000008013093090100C095CDF89400910F01C5
:10061000013029F4002700930F0178940DC07894DD
:10062000F89400911001013029F400270093100183
:10063000789413C0789421C0109111012091120177
:1006400013951A3029F411272395263009F422270F
:10065000109311012093120110C0109111012091EB
:1006600012011A951F3F29F419E02A952F3F09F42A
:1006700025E010931101209312015CCDF8940091B4
:100680000F01013029F4002700930F0178940DC069
:100690007894F89400911001013029F40027009318
:1006A000100178941BC078942DC0109113012091F3
:1006B00014011395143029F01A3009F00AC01127DB
:1006C0002395143009F005C0223009F002C011272B
:1006D0002227109313012093140114C010911301C9
:1006E000209114011A951F3F09F007C019E02A95BF
:1006F0002F3F09F002C013E022E010931301209372
:10070000140100C017CDF89400910E01013029F4B6
:10071000002700930E01789402C0789480C0009165
:100720000C01003009F416C0013009F414C0023085
:1007300009F412C0033009F410C0043009F40EC0EB
:10074000053009F40CC0063009F40AC0073009F47A
:1007500008C065C007C025C005C004C022C021C0B4
:100760003FC03EC0009100010E3051F00D3061F0ED
:100770000B3071F0073001F00EE0109102010CC057
:100780000DE01091030108C00BE01091040104C0BA
:1007900007E01091050100C00093000110930101D2
:1007A0003EC0009100010E3051F00D3061F00B3071
:1007B00071F0073001F00EE0109108010CC00DE05F
:1007C0001091090108C00BE01091060104C007E078
:1007D0001091070100C000930001109301011FC098
:1007E000009100010E3051F00D3061F00B3071F0CE
:1007F000073001F00EE0109111010CC00DE01091D6
:10080000120108C00BE01091130104C007E0109121
:10081000140100C0009300011093010100C08BCCB3
:1008200000270093800004E00093810005E8009316
:1008300085000EEE009384000895002704BD04E0B7
:1008400005BD06E006BD089528E03FEF3A95F1F7B3
:100850002A95D9F708950F930FB70F931F93F4DFDD
:1008600003B100FF05C003FF0CC004FF0EC010C0A1
:1008700010910C011395183008F0112710930C01FA
:1008800007C011E010930F0103C011E01093100195
:100890001F910F910FBF0F91189518950F930FB7D8
:1008A0000F931F9306E006BD01E000930E011F9118
:1008B0000F910FBF0F9118950F930FB70F931F93C1
:1008C00005E8009385000EEE0093840000E8902771
:1008D00000910A010395083721F401E000930D010E
:1008E000002700930A011F910F910FBF0F911895D8
:00000001FF
