S00F00006C61625F315F632E7372656394
S11300000C9434000C9449000C9449000C9449005D
S11300100C9449000C9449000C9449000C94490038
S11300200C9449000C9449000C9449000C94490028
S11300300C9449000C9449000C9449000C94490018
S11300400C9449000C9449000C9449000C94490008
S11300500C9449000C9449000C9449000C944900F8
S11300600C9449000C94490011241FBECFEFD8E032
S1130070DEBFCDBF11E0A0E0B1E0E2E8F2E002C0F3
S113008005900D92A031B107D9F70E94F6000C94A7
S11300903F010C9400001092C1008AB18C6F8AB9A0
S11300A08BB183708BB984B1836084B985B18C7F43
S11300B085B984B1837F84B985B18C6085B908958D
S11300C09BB1282F30E0220F331F220F331F937070
S11300D0292B2BB995B19C7F829586958695837043
S11300E0892B85B90895ECE7F0E010828081806463
S11300F08083808180628083808186608083EAE758
S1130100F0E01082808180688083808187608083B2
S11301100895EAE7F0E080818064808380917A002A
S113012086FDFCCF80917900089587B18F6387B9EC
S113013088B1807C88B984B1806284B985B18F7DAF
S113014085B98AB183608AB98BB18C7F8BB90895E4
S11301508BB18C7F8BB908958BB182608BB98BB1D5
S11301608E7F8BB908958BB181608BB98BB18D7FF4
S11301708BB908958F70E82FF0E0E050FF4F208195
S113018088B1807C922F9F73892B88B926FF04C085
S113019085B1806285B9089585B18F7D85B908954B
S11301A0CF93DF93D82FD295DF70C82FCF700E94E2
S11301B0A8008D2F0E94BA000E94AC008FE396E045
S11301C00197F1F700C000000E94A8008C2F0E9444
S11301D0BA000E94B3008FE396E00197F1F700C0E4
S11301E000000E94A800DF91CF9108950E944B0067
S11301F00E9473000E94950080E00E94600001E06C
S113020011E0E12C02C00F2D1D2F0E948900D82F70
S1130210C0E004C08D2F0E94D000CF5FCA30D0F35D
S113022093B181E0292F247092FF80E0D82F93B1FD
S113023081E0C92FC87093FF80E0F82E113071F46B
S113024021110CC08FE39CE90197F1F700C0000075
S11302501A9904C0E3948E2D0E946000013099F62F
S1130260C111D1CF8FE39CE90197F1F700C00000E1
S11302701B99C9CFEA948E2D0E946000C4CFF894D4
S1050280FFCFAA
S11302823F065B4F666D7D077F6F777C395E7971C0
S9030000FC
