:020000020000FC
:040000000C94270035
:04000C000C94D2037B
:040014000C94F8034D
:040034000C941F0405
:100040000C9413043F065B4F666D7D077F6FF89439
:100050000FEF0DBF08E00EBF00E00093C10006E205
:1000600004B909E105B90FE307B9002708B90CEF96
:100070000AB903E00BB982D38ED3992700270093E6
:10008000000100930101009302010093030100931A
:1000900004010093050100930701009309010093F7
:1000A0000A0100930B0100930C0100930D010093D2
:1000B0000E0100930F0100931001009311010093B2
:1000C0001201009313010093140100931501009392
:1000D0001601009317010093180100931901009372
:1000E0001A0101E0009306010093080101E000936A
:1000F0006F0001E000936E0005E00093680009E1E5
:1001000000936B0003E000936D00789400910F0161
:10011000003009F449C0013009F44AC0023009F442
:100120004BC0033009F44AC0043009F449C005301B
:1001300009F448C0ADC200910101F0E0E4E4E00F31
:100140001491012F0F7308B903E016FD0068209188
:100150000001203011F4086009C0213011F4006161
:1001600005C0223011F4006201C00064209100013A
:10017000213019F0223009F003C0992309F00460FE
:100180000BB901D0C3CF09E110910F01113021F05B
:10019000133011F0026001C004601091160111309B
:1001A00009F4006205B908950FD0B2D0D0D0C2CF03
:1001B0000BD0AED0CCD0BECFECD0BCCF17D1BACF05
:1001C00042D1B8CFC4D0B6CFF8940091100101301D
:1001D00029F4002700931001789402C078940895C0
:1001E0001091020120910301309104014091050119
:1001F00050910601609107017091080180910901F9
:1002000013951A3009F01DC011272395263009F0E7
:1002100018C022273395343029F03A3009F011C044
:1002200033274395343069F4423059F43327442757
:1002300019D05091060160910701709108018091D9
:1002400009011093020120930301309304014093AC
:100250000501509306016093070170930801809394
:1002600009010895009106011091070120910801EC
:1002700030910901313009F003C02130C1F025C0AF
:10028000223039F0243099F0263089F0293079F085
:100290001CC00395093021F00A3089F50027139519
:1002A000093069F5123059F501E011271BC003959B
:1002B000013021F00A3019F5002713950130F9F4C7
:1002C0001330E9F401E011270DC00395023021F04D
:1002D0000A30A9F400271395023089F4133079F419
:1002E00001E011272395233021F02A3041F4222701
:1002F0003395233021F4313011F421E0332700937A
:100300000601109307012093080130930901089515
:100310000091020110910A010117C1F4009103013B
:1003200010910B01011791F40091040110910C013F
:10033000011761F40091050110910D01011731F4CD
:1003400001E00093160105E000930F010895F89471
:1003500000911201013071F000911301013051F050
:1003600000911401013031F000911501013011F0BC
:1003700078940895002700931601009312010093CA
:100380001301009314010093150100930F01789459
:100390000895F89400911201013029F40027009388
:1003A000120178947DC07894F89400911301013083
:1003B00029F4002700931301789483C07894F8946B
:1003C00000911401013029F400270093140178945E
:1003D00089C07894F89400911501013029F4002720
:1003E00000931501789495C078940895F89400913D
:1003F0001201013029F40027009312017894C8C03B
:100400007894F89400911301013029F400270093A7
:1004100013017894BFC07894F894009114010130CE
:1004200029F4002700931401789486C07894F894F6
:1004300000911501013029F40027009315017894EB
:1004400092C078940895F89400911201013029F433
:100450000027009312017894CFC07894F89400910B
:100460001301013029F40027009313017894D5C0BB
:100470007894F89400911401013029F40027009336
:1004800014017894DBC07894F89400911501013040
:1004900029F40027009315017894E7C07894089513
:1004A000109102012091030113951A3029F41127AC
:1004B0002395263009F4222710930201209303018B
:1004C000089510910201209103011A951F3F29F40C
:1004D00019E02A952F3F09F425E01093020120939B
:1004E0000301089510910401209105011395143022
:1004F00029F01A3009F008C011272395143021F48F
:10050000223011F4112722271093040120930501B2
:10051000089510910401209105011A951F3F09F0DB
:1005200006C019E02A952F3F11F413E022E0109342
:1005300004012093050108951091080120910901FB
:100540001395133029F01A3009F008C011272395AC
:10055000133021F4213011F411E022271093080107
:10056000209309010895109108012091090111308B
:1005700029F4203019F412E021E005C01A951F3F3C
:1005800011F419E02A9510930801209309010895A8
:1005900069DE08950091060110910701209108017C
:1005A000309109010130D1F41030C1F4313009F03B
:1005B00003C0213069F00FC0223039F0243041F0FF
:1005C000263031F0293021F006C008E012E00BC0DF
:1005D00000E013E008C001E013E005C00A950F3FFA
:1005E00011F409E01A950093060110930701209376
:1005F000080130930901089510910A0120910B011F
:1006000013951A3029F411272395263009F422274F
:1006100010930A0120930B01089510910A01209173
:100620000B011A951F3F29F419E02A952F3F09F471
:1006300025E010930A0120930B01089510910C01FD
:1006400020910D011395143029F01A3009F008C0DB
:1006500011272395143021F4223011F41127222779
:1006600010930C0120930D01089510910C0120911D
:100670000D011A951F3F09F006C019E02A952F3F7A
:1006800011F413E022E010930C0120930D01089562
:10069000F89400911101013029F400270093110111
:1006A000789402C0789469C000910F01003059F02D
:1006B000013051F0023039F0033031F0043029F0CC
:1006C000053009F05AC002C01EC03AC000910001B6
:1006D000003029F0013039F0023049F00CC010919F
:1006E000020101E00BC01091030102E007C010916C
:1006F000040103E003C01091050100E01093010123
:10070000009300013AC000910001003029F001304F
:1007100039F0023049F00CC01091080101E00BC023
:100720001091090102E007C01091060103E003C027
:100730001091070100E010930101009300011DC01A
:1007400000910001003029F0013039F0023049F009
:100750000CC010910A0101E00BC010910B0102E0E6
:1007600007C010910C0103E003C010910D0100E0DF
:10077000109301010093000100C0DDCC002700931D
:10078000800004E00093810005E8009385000EEEF0
:10079000009384000895002704BD04E005BD06E031
:1007A00006BD08950F930FB70F931F932F933F9399
:1007B00063D003B100FF05C003FF0CC004FF0EC0EF
:1007C00010C010910F011395163008F011271093E7
:1007D0000F0107C011E01093140103C011E0109342
:1007E00015013F912F911F910F910FBF0F911895F8
:1007F0000F930FB70F931F932F933F9344D009B1DB
:1008000000FF03C001FF05C007C011E010931201F3
:1008100003C011E0109313013F912F911F910F918D
:100820000FBF0F9118950F930FB70F9306E006BDFA
:1008300001E0009311010F910FBF0F9118950F93D5
:100840000FB70F9305E8009385000EEE0093840028
:10085000992311F491E001C0992700910E010395AD
:10086000083721F401E000931001002700930E01E6
:100870000F910FBF0F91189528E03FEF3A95F1F7D0
:100880002A95D9F7089528E03FEF3A95F1F72A9590
:04089000D9F70895F7
:00000001FF
