:020000020000FC
:040000000C942E002E
:04000C000C94ED0360
:040014000C940F0435
:040034000C944E04D6
:100040000C944004EFEFEDBFF8E0FEBF3F065B4FBE
:10005000666D7D077F6F777C395E7971F894ECE38C
:10006000E4B9E1E0E5B9EFE3E7B9EE27E8B9ECEF91
:10007000EAB9EBE7EBB9EE27E093C1009AD3A6D338
:100080009927EEE0E0930301EE27E0930501E0936A
:100090000601E0930701E0930801E0930A01E09371
:1000A0000C01E0930401E0931401E0931501E09347
:1000B0001601E0931701E0931001E0930F01E09324
:1000C0001101E0931201E0931301E0931801E09312
:1000D0000D01E0930001E0930101E0930201E1E0F2
:1000E000E0930901E0930B01E9B1E370E0930E01A5
:1000F000E1E0E0936F00E1E0E0936E00E5E0E09383
:100100006800E3E0E0936D00E1E0E0936B00789439
:10011000E0910F01E03009F435C0E13009F4F9C095
:10012000E23009F42FC1E33009F46EC1E43009F480
:10013000AEC1E53009F43DC2E63009F473C2B4C281
:10014000A0910401F0E0ECE4EA0FB491CB2FCF735F
:10015000C8B9C3E0D92FCD2BD0910301DD0FDD0F3E
:10016000DD0FD877CD2BB6FDC068CBB9C0910F019C
:10017000CC0FCC0FC160D0911801D13009F4C0620E
:10018000C5B9C6CFF894A0911001A13029F4AA27CF
:10019000A0931001789402C07894A0C0109105013A
:1001A0002091060130910701409108015091090109
:1001B00060910A0170910B0180910C0113951A3026
:1001C00009F061C011272395263009F05CC0222771
:1001D0003395343029F03A3009F055C03327439530
:1001E000343009F050C0423009F04DC03327442765
:1001F000813031F008C033274427813009F003C033
:10020000713031F117C0723039F0743009F1763045
:10021000F9F07930E9F00EC05395593021F05A3099
:1002200091F555276395593071F5623061F551E0CC
:1002300066271CC05395523021F05A3021F55527BE
:100240006395523001F56330F1F451E066270EC03A
:100250005395513021F05A30B1F455276395513000
:1002600091F4633081F451E0662700C073957330D8
:1002700021F07A3041F477278395733021F481306F
:1002800011F471E088271093050120930601309343
:100290000701409308015093090160930A0170938C
:1002A0000B0180930C01A0910501B0911401AB17D3
:1002B000A9F4A0910601B0911501AB1779F4A091B2
:1002C0000701B0911601AB1749F4A0910801B09154
:1002D0001701AB1719F4A1E0A0931801F894A091AD
:1002E0001201A13029F4AA27A093120178940DC01D
:1002F0007894F894A0911301A13029F4AA27A0932F
:100300001301789402C07894CFC1AA27A093180152
:10031000CBC1F894A0911201A13029F4AA27A0938F
:10032000120178940DC07894F894A0911301A13033
:1003300029F4AA27A0931301789413C07894B4C128
:10034000109105012091060113951A3029F4112707
:100350002395263009F422271093050120930601E6
:10036000A3C110910501209106011A951F3F29F4A0
:1003700019E02A952F3F09F425E0109305012093F9
:10038000060192C1F894A0911201A13029F4AA2784
:10039000A093120178940DC07894F894A091130161
:1003A000A13029F4AA27A0931301789419C0789456
:1003B0007BC110910701209108011395143029F099
:1003C0001A3009F008C011272395143021F4223087
:1003D00011F411272227109307012093080164C10B
:1003E00010910701209108011A951F3F09F007C0DD
:1003F00019E02A952F3F09F002C013E022E0109384
:1004000007012093080150C1F894A0911201A13076
:1004100029F4AA27A093120178940DC07894F89437
:10042000A0911301A13029F4AA27A0931301789475
:1004300019C0789439C110910B0120910C011395CA
:10044000133029F01A3009F008C011272395133012
:1004500021F4213011F411E0222710930B01209395
:100460000C0122C110910B0120910C01113029F4D3
:10047000203019F412E021E005C01A951F3F11F455
:1004800019E02A9510930B0120930C010DC1F894EB
:10049000A0911201A13029F4AA27A0931201789407
:1004A0000DC07894F894A0911301A13029F4AA27E3
:1004B000A093130178944BC07894F6C00091090181
:1004C00010910A0120910B0130910C01313009F09B
:1004D00003C0213031F117C0223039F0243009F146
:1004E0002630F9F02930E9F00EC00395093021F0EB
:1004F0000A3021F500271395093001F51230F1F487
:1005000001E011271BC00395023021F00A30B1F43D
:1005100000271395023091F4133081F401E0112784
:100520000DC00395013021F00A3041F400271395E6
:10053000013021F4133011F401E011270093090177
:1005400010930A0120930B0130930C01ADC0009170
:10055000090110910A0120910B0130910C01013029
:10056000D1F41030C1F4313009F003C0213069F00A
:100570000FC0223039F0243041F0263031F02930DC
:1005800021F006C008E012E00BC000E013E008C054
:1005900001E013E005C00A950F3F11F409E01A9538
:1005A0000093090110930A0120930B0130930C0171
:1005B0007BC0F894A0911201A13029F4AA27A0933E
:1005C000120178940DC07894F894A0911301A13091
:1005D00029F4AA27A0931301789413C0789464C0D7
:1005E000109114012091150113951A3029F4112747
:1005F0002395263009F42227109314012093150126
:1006000053C010911401209115011A951F3F29F430
:1006100019E02A952F3F09F425E010931401209347
:10062000150142C0F894A0911201A13029F4AA2723
:10063000A093120178940DC07894F894A0911301BE
:10064000A13029F4AA27A0931301789419C07894B3
:100650002BC010911601209117011395143029F029
:100660001A3009F008C011272395143021F42230E4
:1006700011F411272227109316012093170114C09B
:1006800010911601209117011A951F3F09F007C01C
:1006900019E02A952F3F09F002C013E022E01093E1
:1006A00016012093170100C0F894A0911101A13008
:1006B00029F4AA27A0931101789402C0789440CD20
:1006C000A0910F01A03009F413C0A13009F411C0AA
:1006D000A23009F40FC0A33009F40DC0A43009F40E
:1006E0000BC0A53009F409C0A63009F407C028CD15
:1006F00006C005C004C021C020C03DC03CC0A091C0
:100700000301AE3051F0AD3061F0AB3071F0A73085
:1007100001F0AEE0B09105010BC0ADE0B091060173
:1007200007C0ABE0B091070103C0A7E0B09108019A
:10073000A0930301B093040103CDA0910301AE3057
:1007400051F0AD3061F0AB3071F0A73001F0AEE0A8
:10075000B0910B010BC0ADE0B0910C0107C0ABE054
:10076000B091090103C0A7E0B0910A01A093030171
:10077000B0930401E5CCA0910301AE3051F0AD304F
:1007800061F0AB3071F0A73001F0AEE0B091140130
:100790000BC0ADE0B091150107C0ABE0B091160100
:1007A00003C0A7E0B0911701A0930301B093040127
:1007B000C7CCEE27E0938000E4E0E0938100E5E819
:1007C000E0938500EEEEE09384000895EE27E4BD0B
:1007D000E4E0E5BDE6E0E6BD0895AF93AFB7AF93C3
:1007E000BF93A3B1B0910001B03031F0A0FF12C0AF
:1007F000BB27B09300010EC0A0FF01C00BC0A091A9
:100800000F01A395A73008F0AA27A0930F01B1E02C
:10081000B0930001BF91AF91AFBFAF911895AFB743
:10082000AF93BF93CF93A9B1A370B0910101B03042
:1008300031F0A1FF0CC0BB27B093010108C0A1FF9C
:1008400001C005C0C1E0C0931201C0930101B09185
:100850000201B03031F0A0FF0CC0BB27B093020101
:1008600008C0A0FF01C005C0C1E0C0931301C09340
:100870000201A0930E01CF91BF91AF91AFBF189528
:10088000EF93EFB7EF93FF93E6E0E6BDF1E0F0936F
:100890001101FF91EF91EFBFEF911895EF93EFB733
:1008A000EF93FF93E5E8E0938500EEEEE09384009C
:1008B000F4E09F27E0910D01E395E83721F4F1E0A2
:1008C000F0931001EE27E0930D01FF91EF91EFBF40
:0408D000EF911895F7
:00000001FF
