:020000020000FC
:020000001CC022
:100038003BC04FEF4DBF48E04EBF0BC040E0409380
:10004800C1003F065B4F666D7D077F6F777C395E29
:1000580079712224389A399A3A9A3C9A209A219AA4
:10006800229A559A569A579A419A429A2A9A289ABF
:10007800299A5E9A5D9A5F9A4098449A44274093D9
:100088000001409301014093020142E044BD45E074
:1000980045BD4BE947BD442746BD42E045BB42E06C
:1000A80040936E007894FFCF4F935F936F936FB731
:1000B8006F934091000143954436D0F04427409314
:1000C80000014091010143954A3078F0442740935C
:1000D8000101409102014395463020F044274093A6
:1000E800020108C04093020105C04093010102C00B
:1000F800409300014098449A409101012CD00ED0C1
:1001080034D0409A44984091020125D007D02DD090
:100118006F916FBF6F915F914F91189540FD419816
:1001280040FF419A41FD2A9841FF2A9A42FD5E9874
:1001380042FF5E9A43FD289843FF289A44FD299878
:1001480044FF299A45FD429845FF429A46FD5D982D
:1001580046FF5D9A0895EF93FF93F0E0E5E2E40F20
:10016800F21D4491FF91EF91089579E184EB8A950E
:08017800F1F77A95D9F708951B
:00000001FF
