S012000070726F796563746F20322E737265634B
S11300000C9434000C9451000C9451000C94510045
S11300100C9451000C9451000C9451000C94B103B5
S11300200C9451000C9451000C9451000C94510008
S11300300C9451000C9451000C9451000C945100F8
S11300400C9451000C9451000C9451000C945100E8
S11300500C9451000C9451000C9451000C945100D8
S11300600C9451000C94510011241FBECFEFD8E022
S1130070DEBFCDBF11E0A0E0B1E0EAEDF8E002C0E0
S113008005900D92AE33B107D9F721E0AEE3B1E0AC
S113009001C01D92AF35B207E1F70E940E030C9424
S11300A06B040C94000080E480937C0087E88093C8
S11300B07A0008958770ECE7F0E09081907F892BB7
S11300C08083EAE7F0E080818064808380917A0015
S11300D086FDFCCF809178009091790008950F936C
S11300E01F93CF93DF9300E019C0C02FD0E0CC0F53
S11300F0DD1FCC0FDD1FC10FD11DC050D040CE017C
S11301000E945104853B20F06AE5CE010E94590407
S11301101F5F01C010E0143040F30F5F0430D0F3D0
S1130120DF91CF911F910F9108950F931F93CF9358
S1130130DF938430E0F48B01D82FC0E016C0F801BF
S1130140EC0FF11D8081853B10F084EB80838D2FB3
S113015090E0880F991F880F991F8C0F911D608163
S1130160805090400E945904CF5FC43040F3DF9127
S1130170CF911F910F910895EF92FF920F931F93C8
S1130180CF93DF938430F0F47B01D82FC0E018C004
S11301902C2F30E08701020F131F8D2F90E0880F62
S11301A0991F880F991F820F931F805090400E94BF
S11301B05104F8018083853B10F08AE58083CF5F8A
S11301C0C43030F3DF91CF911F910F91FF90EF90E6
S11301D0089584B1806284B985B18F7D85B908950D
S11301E085B1806285B9089585B18F7D85B90895FB
S11301F080914401811103C00E94F00008950E947F
S1130200F4000895CF93DF93D82FC0E017C00E9465
S1130210F0002FEF8BED95E0215080409040E1F706
S113022000C000000E94F4002FEF8BED95E02150F8
S113023080409040E1F700C00000CF5FCD1738F355
S1130240DF91CF910895811524E0920710F08FEF8C
S113025093E09C01A4EBB0E00E9442042FEF33E052
S113026040E050E00E942004822F0895CF93C0E024
S113027009C0EC2FF0E0E05CFE4F60818C2F0E94FF
S11302808103CF5FC430A8F3CF910895CF93C0E02A
S11302901DC08C2F0E945A000E9423012C2F30E095
S11302A0F901E05CFE4F9081981720F4482F491B18
S11302B0942F01C0981B953040F0F901E05CFE4F8B
S11302C08083682F8C2F0E948103CF5FC43008F392
S11302D0CF9108950F931F93CF93DF93EC0184364E
S11302E0910508F447C09C013695279536952795C6
S11302F0ABE7B4E10E94420496958795805D0E9425
S11303000C049E01ADECBCEC0E9442048C011695D9
S11303100795169507951695079598010E9442042E
S11303209695879596958795969587959C01220F26
S1130330331F880F991F880F991F880F991F820FE9
S1130340931F9801281B390BC901805D0E940C047E
S1130350C801880F991F000F111F000F111F000FF4
S1130360111F080F191FCE01801B910B805D0E9485
S11303700C0428C08A30910510F19C01ADECBCEC52
S11303800E9442048C0116950795169507951695BB
S1130390079580E3800F0E940C04C801880F991F01
S11303A0000F111F000F111F000F111F080F191F3D
S11303B0CE01801B910B805D0E940C0403C0805D04
S11303C00E940C04DF91CF911F910F91089560E476
S11303D071E080913F010E94950084E091E00E94C9
S11303E0130480913F018F5C0E940C048BE391E025
S11303F00E94130480913F018F5F80933F018430FA
S113040010F010923F0183E00E9402010E94F80064
S11304100895CF93C82F60E471E00E94BC000E944D
S1130420360181E0809344010E94F80085E191E067
S11304300E94130481E38C0F0E940C048BE391E06F
S11304400E941304CF9108951F93CF93DF93FC016F
S11304508081833519F0833709F04BC011818FEC0B
S1130460810F843008F045C092819A3309F041C06D
S113047023E0C0E0D0E013C030ED390F3A3070F41F
S1130480AE01440F551FCC0FDD1FCC0FDD1FCC0F69
S1130490DD1FC40FD51FC90FD11DE0972F5FDF01EA
S11304A0A20FB11D9C919111E7CFC53BD10510F06E
S11304B0C4EBD0E0E82FF0E0E05CFE4FC0836C2F8B
S11304C00E94810382E0809344010E94F80085E247
S11304D091E00E941304812F0E940C048CE291E0AD
S11304E00E941304CE010E946A018BE391E00E94F2
S11304F01304DF91CF911F910895CF930E940504B7
S1130500882309F489C00E940904C82FE0913E01A0
S1130510EE2309F447C0833511F0833759F482E0A0
S1130520809344010E94F800C0934B0181E08093C2
S11305303E0172C08A3011F08D3059F4F0E0E55B71
S1130540FE4F10828BE491E00E94240210923E013F
S113055063C0E33120F5AE2FB0E0A55BBE4F8C93B2
S1130560EF5FE0933E01E43008F456C080914B0104
S1130570833519F0833709F04FC080914D018A33D8
S113058009F04AC0C053CA3008F046C0F0E0E55B49
S1130590FE4F10828BE491E00E9424023DC0109231
S11305A03E013AC0833511F0833759F482E08093D9
S11305B044010E94F800C0934B0181E080933E0106
S11305C02BC0813321F480E00E94090225C08233CC
S11305D021F481E00E9409021FC0833321F482E0E8
S11305E00E94090219C0843321F483E00E940902A5
S11305F013C08D3411F08D3649F4109244010E94D9
S1130600F80080E391E00E94130406C0873411F0DF
S1130610873611F40E94E701CF9108950E94530098
S11306200E9443030E946F000E94F9030E94E900A4
S1130630109244010E94F80002C00E947D020E94B0
S113064005048111FACF80914401811102C00E94F6
S113065046018FE99FE00197F1F700C00000EFCF5A
S1130660853B08F084EB282F30E0A8E0B7E00E9437
S1130670420424EB30E040E050E00E942004C90131
S1130680885A9D4F089584B18E6084B98AB1886078
S11306908AB9A0E8B0E01C92E1E8F0E010828C9105
S11306A0806A8C938C9182608C9380818861808332
S11306B08081826080838FE39CE99093870080939C
S11306C0860088EB9BE09093890080938800909348
S11306D08B0080938A00A0EBB0E01C92E1EBF0E089
S11306E010828C9182608C9380818260808383E10C
S11306F08093B300E0E7F0E08081826080837894A7
S11307000895CF93C82F843050F5653B08F064EB0F
S1130710EC2FF0E0E95BFE4F6083862F0E943003EC
S1130720C11107C0880F991F909389008093880096
S113073016C0C13039F4880F991F90938B008093B1
S11307408A000DC0C23029F4909303018093020102
S113075006C0C33021F49093010180930001CF912E
S113076008951F920F920FB60F9211242F933F9367
S11307708F939F9380914501909146010A9690939F
S11307804601809345018091450190914601803254
S11307909E4450F010924601109245018BB188603E
S11307A08BB985B1886085B92091450130914601A6
S11307B080910201909103012817390718F08BB139
S11307C0877F8BB9209145013091460180910001CA
S11307D0909101012817390718F085B1877F85B9F1
S11307E09F918F913F912F910F900FBE0F901F906B
S11307F018951092C50087E68093C40088E1809321
S1130800C10086E08093C20008958091C000807882
S113081008958091C60008959091C00095FFFCCF83
S11308208093C6000895CF93DF93EC0103C00E9428
S11308300C04219688818111FACFDF91CF9108951C
S1130840A1E21A2EAA1BBB1BFD010DC0AA1FBB1FD0
S1130850EE1FFF1FA217B307E407F50720F0A21B42
S1130860B30BE40BF50B661F771F881F991F1A94AF
S113087069F760957095809590959B01AC01BD01D9
S1130880CF010895A29FB001B39FC001A39F700D33
S1130890811D1124911DB29F700D811D1124911D84
S11308A00895F999FECF92BD81BDF89A992780B534
S11308B00895262FF999FECF92BD81BDF89A01972C
S11308C000B4021639F01FBA20BD0FB6F894FA9A94
S10D08D0F99A0FBE0895F894FFCFC3
S11308DA58025802477561726461646F20657374C3
S11308EA61646F20004361726761646F2065737489
S11308FA61646F2000536572766F2000203D2000EA
S111090A4D6F646F206D616E75616C0D0A0097
S9030000FC
