:020000020000FC
:020000001CC022
:1000380021C00FEF0DBF08E00EBF0FE307B900277F
:1000480008B9209A2898002700930001009301011D
:1000580002E004BD05E005BD0BE907BD002706BDAC
:1000680002E005BB02E000936E004091010123D03D
:100078007894FFCF0F931F934F935F936F931FB79E
:100088001F93009100010395043658F00027009350
:1000980000014091010143954F70409301010BD03D
:1000A80002C0009300011F911FBF6F915F914F9194
:1000B8001F910F911895F0E0E6EDE40FF11D5491B2
:1000C800652F6F7368B9289856FD289A08953F06DA
:0E00D8005B4F666D7D077F6F777C395E7971B7
:00000001FF
