:020000020000FC
:040000000C9430002C
:04000C000C94F80355
:040014000C945804EC
:040034000C94E7043D
:100040000C948B0431283130313031313031303142
:100050003F065B4F666D7D077F6F777C395E7971F8
:10006000F89400E80093610004E000936100F894C4
:100070000FEF0DBF08E00EBF18D027D076D07CD090
:1000800064D078940091170100FD67C101FD9BC108
:1000900002FD9FC103FDD0C104FD0AC205FD43C29C
:1000A00006FDC6C207FDF7C232C30CE304B903E084
:1000B00005B90FE307B9002708B900270093C1006D
:1000C0000CEF0AB90BE70BB9089599270EE00093DE
:1000D0000801002700930A0100930B0100930C0113
:1000E00000930D0100930F0100931101009309018A
:1000F0000093120100931301009314010093150162
:100100000093160100931701009318010093190141
:1001100000931A0100930001009301010093020172
:10012000009303010093040100930501009306016D
:100130000093070101E000930E010093100109B143
:10014000037000931B0125D0089501E000936F0018
:1001500001E000936E0005E00093680003E0009367
:100160006D0003E000936B000895002704BD04E0D8
:1001700005BD00EF06BD089500270093800004E050
:100180000093810008EF009385000FE50093840041
:100190000895002710911601103011F401E019C0E4
:1001A000113011F402E015C0123011F404E011C056
:1001B000133011F408E00DC0143011F400E109C04F
:1001C000153011F400E205C0163011F400E401C04E
:1001D00000E800931701089500910901F0E0E0E5BF
:1001E000E00F1127F11F1491212F2F7328B923E05D
:1001F000392F232B30910801330F330F330F38770A
:10020000232B16FD20682BB923E0309116013030E6
:1002100009F419C0313011F4206115C0323011F4E5
:10022000246011C0333011F428600DC0343011F453
:10023000246109C0353011F4286105C0363011F44D
:100240002C6001C02C6130911901303009F020621E
:1002500025B918CF10910A0120910B0130910C01A2
:1002600040910D0150910E0160910F0170911001AC
:1002700080911101089510930A0120930B0130938E
:100280000C0140930D0150930E0160930F01709388
:10029000100180931101089500270093190108951A
:1002A00000910A01A09112010A17A9F400910B0113
:1002B000A09113010A1779F400910C01A091140187
:1002C0000A1749F400910D01A09115010A1719F4BC
:1002D00001E0009319010895272F813011F43AE0CD
:1002E000230F2A95F0E0E4E4E20F3327F31F049193
:1002F000102F0F7012951F70089553955A3010F0FB
:1003000055276395E9DF611788F019F4501770F0ED
:1003100069F051E0662773957A3010F0772783955E
:10032000813021F4733011F471E0882708955091E1
:100330000E0160910F017091100180911101CCDFCD
:10034000611750F019F4501738F031F0612F502F29
:1003500050930E0160930F0108950091180101FF61
:1003600022C00D7F0093180175DF13951A30C9F470
:10037000112723952630A9F4222733953A3011F41A
:1003800033274395423069F4343059F433274427F6
:100390001F932F933F934F93B0DF4F913F912F9136
:1003A0001F9169DF7DDF0091180102FD07C003FF87
:1003B00009C0077F009318016FDFA9C10B7F00936D
:1003C00018016ADFA4C100911801037F009318018E
:1003D0009EC10091180102FD06C003FF08C0077FFF
:1003E0000093180116C00B7F0093180101C08FC144
:1003F00010910A0120910B0113951A3029F411274D
:100400002395263009F4222710930A0120930B012B
:100410007EC110910A0120910B01103039F419E0CE
:10042000203011F425E003C02A9501C01A951093DD
:100430000A0120930B016BC10091180102FD06C057
:1004400003FF08C0077F0093180119C00B7F0093BA
:10045000180101C05CC110910C0120910D01139590
:100460001A3011F411272395223021F4143011F49D
:100470001127222710930C0120930D0148C11091E0
:100480000C0120910D01103041F4203019F422E0CC
:1004900013E009C019E02A9501C01A95223019F419
:1004A000143008F013E010930C0120930D012FC1BC
:1004B0000091180102FD06C003FF08C0077F0093EA
:1004C00018011AC00B7F0093180101C020C11091C0
:1004D00010012091110113951A3011F41127239561
:1004E000213021F4133011F411E022271093100170
:1004F000209311011CDF0BC11091100120911101FB
:10050000203029F4113019F412E021E006C0103037
:1005100019F419E02A9501C01A951093100120933F
:10052000110105DFF4C00091180102FD06C003FFB0
:1005300008C0077F0093180148C00B7F0093180183
:1005400001C0E5C000910E0110910F012091100132
:1005500030911101313009F003C0213011F515C07F
:10056000223039F0243089F0263079F0293069F0D2
:1005700018C003950A3011F4002713951230E1F4E6
:100580000930D1F401E0112717C003950A3011F4A6
:1005900000271395133081F4013071F401E0112725
:1005A0000BC003950A3011F400271395133021F482
:1005B000023011F401E0112700930E0110930F0196
:1005C0002093100130931101A2C000910E011091EF
:1005D0000F0120911001309111011030D1F4013040
:1005E000C1F4313009F003C0213081F40CC0223055
:1005F00039F0243041F0263031F0293021F006C0A6
:1006000008E012E00CC000E013E009C001E013E0D4
:1006100006C0003019F409E01A9501C00A9500934C
:100620000E0110930F0120931001309311016FC040
:100630000091180102FD06C003FF08C0077F009368
:10064000180116C00B7F0093180101C060C0109103
:1006500012012091130113951A3029F411272395C3
:10066000263009F4222710931201209313014FC062
:100670001091120120911301103039F419E020304B
:1006800011F425E003C02A9501C01A9510931201B8
:10069000209313013CC00091180102FD06C003FF26
:1006A00008C0077F0093180119C00B7F0093180141
:1006B00001C02DC0109114012091150113951A301D
:1006C00011F411272395223021F4143011F411274D
:1006D0002227109314012093150119C010911401C1
:1006E00020911501103041F4203019F413E022E07C
:1006F00009C019E02A9501C01A95223019F4143066
:1007000008F013E0109314012093150100C000912C
:10071000180100FF61CD0E7F0093180100911701B1
:1007200000FD0FC002FD0DC003FD0BC001FD26C082
:1007300004FD24C005FD22C006FD3DC007FD3BC0F1
:1007400000C0009108010E3049F00D3059F00B3017
:1007500069F000C00EE010910A010BC00DE010918D
:100760000B0107C00BE010910C0103C007E01091D2
:100770000D0100930801109309012ECD009108018D
:100780000E3049F00D3059F00B3069F000C00EE02A
:10079000109110010BC00DE01091110107C00BE08A
:1007A00010910E0103C007E010910F0100930801A2
:1007B0001093090111CD009108010E3049F00D3060
:1007C00059F00B3069F000C00EE0109112010BC01F
:1007D0000DE01091130107C00BE01091140103C04C
:1007E00007E0109115010093080110930901F4CC62
:1007F0000F930FB70F931F932F933F9303B1109154
:100800000001103029F500FD23C020911601203091
:1008100069F0213069F0223069F0233059F024303A
:1008200059F0253049F0263049F008C021E007C0D2
:1008300022E005C024E003C026E001C02227209367
:100840001601A7DC11E01093000118E010930401D9
:1008500010910301103029F501FD23C020911601EC
:10086000223059F0233059F0243059F0253059F016
:10087000263059F0273059F014C023E009C022E097
:1008800007C025E005C024E003C027E001C026E042
:10089000209316017EDC11E01093030118E0109301
:1008A00007013F912F911F910F910FBF0F91189545
:1008B0000F930FB70F931F932F933F9309B10370BB
:1008C00000931B0110910101103069F401FD0BC070
:1008D0002091180124602093180121E02093010148
:1008E00028E02093050110910201103069F400FD09
:1008F0000BC03091180138603093180131E030930B
:10090000020138E0309306013F912F911F910F9122
:100910000FBF0F9118950F930FB70F931F932F933E
:100920003F9300EF06BD109118011160109318015C
:1009300020910001203071F033B130FF0BC02091C5
:100940000401203021F02A952093040103C02227BE
:100950002093000120910301203071F033B131FF69
:100960000BC020910701203021F02A952093070128
:1009700003C022272093030120910101203071F050
:1009800039B131FF0BC020910501203021F02A95AB
:100990002093050103C02227209301012091020129
:1009A000203071F039B130FF0BC0209106012030AA
:1009B00021F02A952093060103C0222720930201EB
:1009C0003F912F911F910F910FBF0F9118950F938A
:1009D0000FB70F931F9308EF009385000FE5009367
:1009E000840014E0912700911A010395083731F42F
:1009F00000271091180112601093180100931A013A
:0A0A00001F910F910FBF0F91189581
:00000001FF
