S01700004763634170706C69636174696F6E332E7372656359
S11300000C9434000C9451000C9451000C94510045
S11300100C9451000C9451000C9451000C94510018
S11300200C9451000C9451000C9451000C94510008
S11300300C9451000C9451000C9451000C945100F8
S11300400C9451000C9451000C9451000C945100E8
S11300500C9451000C9465010C9451000C945100C3
S11300600C9451000C94510011241FBECFEFD8E022
S1130070DEBFCDBF11E0A0E0B1E0E0E0F3E002C0FC
S113008005900D92A031B107D9F721E0A0E1B1E0CC
S113009001C01D92A131B207E1F70E9416010C9430
S11300A07E010C940000ECE7F0E010828081806413
S11300B08083808180628083808186608083EAE798
S11300C0F0E01082808180688083808188608083F2
S11300D0808187608083808180648083089523B1D8
S11300E030E0082E02C0359527950A94E2F720FDEA
S11300F015C02FEF39EF40E0215030404040E1F788
S113010000C0000023B130E0A90102C05595479515
S11301108A95E2F740FD04C081E0089580E00895E7
S113012080E0089588B1806388B908951092C10071
S11301308FEF8AB91BB884B18C7F84B985B1836091
S113014085B984B18C6384B985B1837C85B987B161
S11301508F6387B988B18E7F88B988B1817F88B968
S11301600E9492000895E82FF0E0E050FF4F808154
S113017095B1937C95B998B1917F98B980FF03C0EC
S113018095B1946095B981FF03C095B1986095B914
S113019082FF03C095B1906195B983FF03C095B107
S11301A0906295B984FF03C098B1926098B985FFB5
S11301B003C098B1946098B986FF03C088B1886081
S11301C088B90895CF93DF93D82FD295DF70C82FC5
S11301D0CF700E9492008D2F0E94B30088B18F7E51
S11301E088B98FE99FE00197F1F700C000000E94F1
S11301F092008C2F0E94B30088B18F7D88B98FE95B
S11302009FE00197F1F700C000000E949200DF9187
S1130210CF91089590911001981720F088B18160D2
S113022088B9089588B18E7F88B90895F8940E949A
S113023096000E94530078941BB8D0E0C0E008C038
S1130240809110010E94E2008D2F0E940A01CF5F6D
S1130250C431B0F380E00E946F008823C1F0DF5FF7
S1130260DBB98D2F0E940A0107C0809110010E9402
S1130270E2008D2F0E940A01189BF7CF2FEF89EF20
S113028090E0215080409040E1F700C0000081E000
S11302900E946F00882391F2D150DBB98D2F0E9408
S11302A00A0107C0809110010E94E2008D2F0E9474
S11302B00A01199BF7CF2FEF89EF90E0215080407E
S11302C09040E1F700C00000B9CF1F920F920FB623
S11302D00F9211248F93EF93FF9380917900809371
S11302E01001EAE7F0E0808180648083FF91EF9160
S11302F08F910F900FBE0F901F901895F894FFCF19
S11303003F065B4F666D7D077F6F777C395E797141
S9030000FC
