:100000000C9434000C9446000C9446000C9446006A
:100010000C9446000C9446000C9446000C94460048
:100020000C9446000C9446000C9446000C94460038
:100030000C9446000C9446000C947C010C944600F1
:100040000C9446000C9446000C9446000C94460018
:100050000C9446000C9446000C9446000C94460008
:100060000C9446000C94460011241FBECFEFD8E03C
:10007000DEBFCDBF21E0A0E0B1E001C01D92A23003
:10008000B207E1F70E94B7000C94E0010C94000065
:10009000ACE7B0E01C92EAE7F0E010828C9180645B
:1000A0008C938081806880838081876080830895BD
:1000B000ECE7F0E09081907F908390818F70982B97
:1000C0009083EAE7F0E080818064808380917A0009
:1000D00086FDFCCF809178009091790008959C0175
:1000E000A0EABFE00E94D1012FEF33E040E050E0F2
:1000F0000E94AF01C90188519C4F08950F931F932F
:100100008C0120E030E0D901C801880F991FAA1F97
:10011000BB1F880F991FAA1FBB1F880F991FAA1FFB
:10012000BB1F880F991FAA1FBB1F880F991FAA1FEB
:10013000BB1FBC01CD01601B710B820B930B2FEF1A
:1001400033E040E050E00E94AF0188E0820F1F9151
:100150000F9108959C01A4E6B0E00E94D1012FEF19
:1001600033E040E050E00E94AF01822F08950E94EA
:10017000480048E050E06FE37CE980E00E941D0108
:100180000E9449010E945F01789480E00E9458001B
:100190008C0181E00E945800EC0182E00E9458002E
:1001A0007C01C8010E946F008C01CE010E947E007C
:1001B000D82FC7010E94AA00C82FC8010E9444017D
:1001C0008D2F0E945C018C2F0E947601DECF80343F
:1001D0009105D9F030F48130910559F0089779F004
:1001E00026C0811521E09207B1F081159440C9F035
:1001F0001EC0E1E8F0E08081816080830895E1E83D
:10020000F0E08081826080830895E1E8F0E0808101
:10021000836080830895E1E8F0E0808184608083DA
:100220000895E1E8F0E08081856080830895E1E849
:10023000F0E0808182608083089594B1926094B9E7
:10024000A0E8B0E01C92E1E8F0E010829C9192609E
:100250009C93908198619083882331F0E0E8F0E0EE
:100260008081806C808308C0E0E8F0E08081806855
:10027000808380818F7B808370938700609386006A
:10028000CA010E94E7000895909389008093880036
:1002900008958AB188608AB9E0EBF0E01082A1EBA2
:1002A000B0E01C9280818360808380818062808343
:1002B0008C9187608C9308958093B400089584B1E5
:1002C000816084B985B18E7F85B914BC15BCEEE61A
:1002D000F0E0108284B5826084BD83E687BD8081B2
:1002E0008260808385B5826085BD0895853608F07B
:1002F00084E68093010108951F920F920FB60F922A
:1003000011248F939F938091000181110BC08091E4
:100310000101882321F085B1816085B903C085B1D1
:100320008E7F85B99091000180910101981307C0DB
:1003300080910101843618F485B18E7F85B9809152
:1003400000018F5F80930001843610F0109200014D
:100350009F918F910F900FBE0F901F901895A1E263
:100360001A2EAA1BBB1BFD010DC0AA1FBB1FEE1F2F
:10037000FF1FA217B307E407F50720F0A21BB30B7A
:10038000E40BF50B661F771F881F991F1A9469F7F6
:1003900060957095809590959B01AC01BD01CF0152
:1003A0000895A29FB001B39FC001A39F700D811D4E
:1003B0001124911DB29F700D811D1124911D08956E
:0403C000F894FFCFDF
:00000001FF
