:100000000C9434000C943E000C943E000C943E0082
:100010000C943E000C943E000C943E000C943E0068
:100020000C943E000C943E000C943E000C943E0058
:100030000C943E000C943E000C943E000C943E0048
:100040000C943E000C943E000C9464000C943E0012
:100050000C943E000C943E000C943E000C943E0028
:100060000C943E000C943E0011241FBECFEFD8E04C
:10007000DEBFCDBF0E9447000C94B2000C9400007C
:100080009091C00095FFFCCF8093C6000895F8942E
:1000900084B1806284B98AB180628AB985B18F7D6A
:1000A00085B98BB18F7D8BB90E949D00789488E4CF
:1000B0000E9440008FE60E9440008CE60E944000B3
:1000C00081E60E944000FFCF1F920F920FB60F9261
:1000D00011242F933F934F935F936F937F938F934D
:1000E0009F93AF93BF93CF93EF93FF93C091C600BD
:1000F0008C2F0E944000C13631F485B1806285B9F1
:100100008BB180628BB9C23631F485B18F7D85B9F0
:100110008BB18F7D8BB9FF91EF91CF91BF91AF9153
:100120009F918F917F916F915F914F913F912F910F
:100130000F900FBE0F901F9018958AB18E7F8AB9CD
:100140008AB181608AB91092C00088E98093C100A9
:1001500086E08093C20087E690E09093C50080938C
:08016000C4000895F894FFCFDC
:00000001FF
